{"project/contracts/CyFiVault.sol":{"CyFiVault":{"abi":[{"anonymous":false,"inputs":[{"indexed":false,"internalType":"string","name":"fileHash","type":"string"},{"indexed":false,"internalType":"uint256","name":"timestamp","type":"uint256"}],"name":"EvidenceAnchored","type":"event"},{"inputs":[{"internalType":"string","name":"_fileHash","type":"string"}],"name":"anchorEvidence","outputs":[],"stateMutability":"nonpayable","type":"function"},{"inputs":[{"internalType":"string","name":"_fileHash","type":"string"}],"name":"verifyEvidence","outputs":[{"internalType":"uint256","name":"","type":"uint256"}],"stateMutability":"view","type":"function"}],"evm":{"bytecode":{"linkReferences":{},"object":"6080604052348015600e575f5ffd5b506104ce8061001c5f395ff3fe608060405234801561000f575f5ffd5b5060043610610034575f3560e01c806309c0c42e146100385780636f13f95a14610054575b5f5ffd5b610052600480360381019061004d91906102b4565b610084565b005b61006e600480360381019061006991906102b4565b610141565b60405161007b9190610313565b60405180910390f35b5f5f82604051610094919061037e565b908152602001604051809103902054146100e3576040517f08c379a00000000000000000000000000000000000000000000000000000000081526004016100da90610414565b60405180910390fd5b425f826040516100f3919061037e565b9081526020016040518091039020819055507fd18bde43e43c17a5e820f1cfc155856d6fee74bf259799a3f1c5f20999276d5b814260405161013692919061046a565b60405180910390a150565b5f5f82604051610151919061037e565b9081526020016040518091039020549050919050565b5f604051905090565b5f5ffd5b5f5ffd5b5f5ffd5b5f5ffd5b5f601f19601f8301169050919050565b7f4e487b71000000000000000000000000000000000000000000000000000000005f52604160045260245ffd5b6101c682610180565b810181811067ffffffffffffffff821117156101e5576101e4610190565b5b80604052505050565b5f6101f7610167565b905061020382826101bd565b919050565b5f67ffffffffffffffff82111561022257610221610190565b5b61022b82610180565b9050602081019050919050565b828183375f83830152505050565b5f61025861025384610208565b6101ee565b9050828152602081018484840111156102745761027361017c565b5b61027f848285610238565b509392505050565b5f82601f83011261029b5761029a610178565b5b81356102ab848260208601610246565b91505092915050565b5f602082840312156102c9576102c8610170565b5b5f82013567ffffffffffffffff8111156102e6576102e5610174565b5b6102f284828501610287565b91505092915050565b5f819050919050565b61030d816102fb565b82525050565b5f6020820190506103265f830184610304565b92915050565b5f81519050919050565b5f81905092915050565b8281835e5f83830152505050565b5f6103588261032c565b6103628185610336565b9350610372818560208601610340565b80840191505092915050565b5f610389828461034e565b915081905092915050565b5f82825260208201905092915050565b7f45766964656e636520616c726561647920657869737473206f6e206c656467655f8201527f722e000000000000000000000000000000000000000000000000000000000000602082015250565b5f6103fe602283610394565b9150610409826103a4565b604082019050919050565b5f6020820190508181035f83015261042b816103f2565b9050919050565b5f61043c8261032c565b6104468185610394565b9350610456818560208601610340565b61045f81610180565b840191505092915050565b5f6040820190508181035f8301526104828185610432565b90506104916020830184610304565b939250505056fea26469706673582212202e9c0efc34a549bafda314e44f9e17fa7ac70c4a0550ff82267f5f78f60340ed64736f6c634300081c0033","opcodes":"PUSH1 0x80 PUSH1 0x40 MSTORE CALLVALUE DUP1 ISZERO PUSH1 0xE JUMPI PUSH0 PUSH0 REVERT JUMPDEST POP PUSH2 0x4CE DUP1 PUSH2 0x1C PUSH0 CODECOPY PUSH0 RETURN INVALID PUSH1 0x80 PUSH1 0x40 MSTORE CALLVALUE DUP1 ISZERO PUSH2 0xF JUMPI PUSH0 PUSH0 REVERT JUMPDEST POP PUSH1 0x4 CALLDATASIZE LT PUSH2 0x34 JUMPI PUSH0 CALLDATALOAD PUSH1 0xE0 SHR DUP1 PUSH4 0x9C0C42E EQ PUSH2 0x38 JUMPI DUP1 PUSH4 0x6F13F95A EQ PUSH2 0x54 JUMPI JUMPDEST PUSH0 PUSH0 REVERT JUMPDEST PUSH2 0x52 PUSH1 0x4 DUP1 CALLDATASIZE SUB DUP2 ADD SWAP1 PUSH2 0x4D SWAP2 SWAP1 PUSH2 0x2B4 JUMP JUMPDEST PUSH2 0x84 JUMP JUMPDEST STOP JUMPDEST PUSH2 0x6E PUSH1 0x4 DUP1 CALLDATASIZE SUB DUP2 ADD SWAP1 PUSH2 0x69 SWAP2 SWAP1 PUSH2 0x2B4 JUMP JUMPDEST PUSH2 0x141 JUMP JUMPDEST PUSH1 0x40 MLOAD PUSH2 0x7B SWAP2 SWAP1 PUSH2 0x313 JUMP JUMPDEST PUSH1 0x40 MLOAD DUP1 SWAP2 SUB SWAP1 RETURN JUMPDEST PUSH0 PUSH0 DUP3 PUSH1 0x40 MLOAD PUSH2 0x94 SWAP2 SWAP1 PUSH2 0x37E JUMP JUMPDEST SWAP1 DUP2 MSTORE PUSH1 0x20 ADD PUSH1 0x40 MLOAD DUP1 SWAP2 SUB SWAP1 KECCAK256 SLOAD EQ PUSH2 0xE3 JUMPI PUSH1 0x40 MLOAD PUSH32 0x8C379A000000000000000000000000000000000000000000000000000000000 DUP2 MSTORE PUSH1 0x4 ADD PUSH2 0xDA SWAP1 PUSH2 0x414 JUMP JUMPDEST PUSH1 0x40 MLOAD DUP1 SWAP2 SUB SWAP1 REVERT JUMPDEST TIMESTAMP PUSH0 DUP3 PUSH1 0x40 MLOAD PUSH2 0xF3 SWAP2 SWAP1 PUSH2 0x37E JUMP JUMPDEST SWAP1 DUP2 MSTORE PUSH1 0x20 ADD PUSH1 0x40 MLOAD DUP1 SWAP2 SUB SWAP1 KECCAK256 DUP2 SWAP1 SSTORE POP PUSH32 0xD18BDE43E43C17A5E820F1CFC155856D6FEE74BF259799A3F1C5F20999276D5B DUP2 TIMESTAMP PUSH1 0x40 MLOAD PUSH2 0x136 SWAP3 SWAP2 SWAP1 PUSH2 0x46A JUMP JUMPDEST PUSH1 0x40 MLOAD DUP1 SWAP2 SUB SWAP1 LOG1 POP JUMP JUMPDEST PUSH0 PUSH0 DUP3 PUSH1 0x40 MLOAD PUSH2 0x151 SWAP2 SWAP1 PUSH2 0x37E JUMP JUMPDEST SWAP1 DUP2 MSTORE PUSH1 0x20 ADD PUSH1 0x40 MLOAD DUP1 SWAP2 SUB SWAP1 KECCAK256 SLOAD SWAP1 POP SWAP2 SWAP1 POP JUMP JUMPDEST PUSH0 PUSH1 0x40 MLOAD SWAP1 POP SWAP1 JUMP JUMPDEST PUSH0 PUSH0 REVERT JUMPDEST PUSH0 PUSH0 REVERT JUMPDEST PUSH0 PUSH0 REVERT JUMPDEST PUSH0 PUSH0 REVERT JUMPDEST PUSH0 PUSH1 0x1F NOT PUSH1 0x1F DUP4 ADD AND SWAP1 POP SWAP2 SWAP1 POP JUMP JUMPDEST PUSH32 0x4E487B7100000000000000000000000000000000000000000000000000000000 PUSH0 MSTORE PUSH1 0x41 PUSH1 0x4 MSTORE PUSH1 0x24 PUSH0 REVERT JUMPDEST PUSH2 0x1C6 DUP3 PUSH2 0x180 JUMP JUMPDEST DUP2 ADD DUP2 DUP2 LT PUSH8 0xFFFFFFFFFFFFFFFF DUP3 GT OR ISZERO PUSH2 0x1E5 JUMPI PUSH2 0x1E4 PUSH2 0x190 JUMP JUMPDEST JUMPDEST DUP1 PUSH1 0x40 MSTORE POP POP POP JUMP JUMPDEST PUSH0 PUSH2 0x1F7 PUSH2 0x167 JUMP JUMPDEST SWAP1 POP PUSH2 0x203 DUP3 DUP3 PUSH2 0x1BD JUMP JUMPDEST SWAP2 SWAP1 POP JUMP JUMPDEST PUSH0 PUSH8 0xFFFFFFFFFFFFFFFF DUP3 GT ISZERO PUSH2 0x222 JUMPI PUSH2 0x221 PUSH2 0x190 JUMP JUMPDEST JUMPDEST PUSH2 0x22B DUP3 PUSH2 0x180 JUMP JUMPDEST SWAP1 POP PUSH1 0x20 DUP2 ADD SWAP1 POP SWAP2 SWAP1 POP JUMP JUMPDEST DUP3 DUP2 DUP4 CALLDATACOPY PUSH0 DUP4 DUP4 ADD MSTORE POP POP POP JUMP JUMPDEST PUSH0 PUSH2 0x258 PUSH2 0x253 DUP5 PUSH2 0x208 JUMP JUMPDEST PUSH2 0x1EE JUMP JUMPDEST SWAP1 POP DUP3 DUP2 MSTORE PUSH1 0x20 DUP2 ADD DUP5 DUP5 DUP5 ADD GT ISZERO PUSH2 0x274 JUMPI PUSH2 0x273 PUSH2 0x17C JUMP JUMPDEST JUMPDEST PUSH2 0x27F DUP5 DUP3 DUP6 PUSH2 0x238 JUMP JUMPDEST POP SWAP4 SWAP3 POP POP POP JUMP JUMPDEST PUSH0 DUP3 PUSH1 0x1F DUP4 ADD SLT PUSH2 0x29B JUMPI PUSH2 0x29A PUSH2 0x178 JUMP JUMPDEST JUMPDEST DUP2 CALLDATALOAD PUSH2 0x2AB DUP5 DUP3 PUSH1 0x20 DUP7 ADD PUSH2 0x246 JUMP JUMPDEST SWAP2 POP POP SWAP3 SWAP2 POP POP JUMP JUMPDEST PUSH0 PUSH1 0x20 DUP3 DUP5 SUB SLT ISZERO PUSH2 0x2C9 JUMPI PUSH2 0x2C8 PUSH2 0x170 JUMP JUMPDEST JUMPDEST PUSH0 DUP3 ADD CALLDATALOAD PUSH8 0xFFFFFFFFFFFFFFFF DUP2 GT ISZERO PUSH2 0x2E6 JUMPI PUSH2 0x2E5 PUSH2 0x174 JUMP JUMPDEST JUMPDEST PUSH2 0x2F2 DUP5 DUP3 DUP6 ADD PUSH2 0x287 JUMP JUMPDEST SWAP2 POP POP SWAP3 SWAP2 POP POP JUMP JUMPDEST PUSH0 DUP2 SWAP1 POP SWAP2 SWAP1 POP JUMP JUMPDEST PUSH2 0x30D DUP2 PUSH2 0x2FB JUMP JUMPDEST DUP3 MSTORE POP POP JUMP JUMPDEST PUSH0 PUSH1 0x20 DUP3 ADD SWAP1 POP PUSH2 0x326 PUSH0 DUP4 ADD DUP5 PUSH2 0x304 JUMP JUMPDEST SWAP3 SWAP2 POP POP JUMP JUMPDEST PUSH0 DUP2 MLOAD SWAP1 POP SWAP2 SWAP1 POP JUMP JUMPDEST PUSH0 DUP2 SWAP1 POP SWAP3 SWAP2 POP POP JUMP JUMPDEST DUP3 DUP2 DUP4 MCOPY PUSH0 DUP4 DUP4 ADD MSTORE POP POP POP JUMP JUMPDEST PUSH0 PUSH2 0x358 DUP3 PUSH2 0x32C JUMP JUMPDEST PUSH2 0x362 DUP2 DUP6 PUSH2 0x336 JUMP JUMPDEST SWAP4 POP PUSH2 0x372 DUP2 DUP6 PUSH1 0x20 DUP7 ADD PUSH2 0x340 JUMP JUMPDEST DUP1 DUP5 ADD SWAP2 POP POP SWAP3 SWAP2 POP POP JUMP JUMPDEST PUSH0 PUSH2 0x389 DUP3 DUP5 PUSH2 0x34E JUMP JUMPDEST SWAP2 POP DUP2 SWAP1 POP SWAP3 SWAP2 POP POP JUMP JUMPDEST PUSH0 DUP3 DUP3 MSTORE PUSH1 0x20 DUP3 ADD SWAP1 POP SWAP3 SWAP2 POP POP JUMP JUMPDEST PUSH32 0x45766964656E636520616C726561647920657869737473206F6E206C65646765 PUSH0 DUP3 ADD MSTORE PUSH32 0x722E000000000000000000000000000000000000000000000000000000000000 PUSH1 0x20 DUP3 ADD MSTORE POP JUMP JUMPDEST PUSH0 PUSH2 0x3FE PUSH1 0x22 DUP4 PUSH2 0x394 JUMP JUMPDEST SWAP2 POP PUSH2 0x409 DUP3 PUSH2 0x3A4 JUMP JUMPDEST PUSH1 0x40 DUP3 ADD SWAP1 POP SWAP2 SWAP1 POP JUMP JUMPDEST PUSH0 PUSH1 0x20 DUP3 ADD SWAP1 POP DUP2 DUP2 SUB PUSH0 DUP4 ADD MSTORE PUSH2 0x42B DUP2 PUSH2 0x3F2 JUMP JUMPDEST SWAP1 POP SWAP2 SWAP1 POP JUMP JUMPDEST PUSH0 PUSH2 0x43C DUP3 PUSH2 0x32C JUMP JUMPDEST PUSH2 0x446 DUP2 DUP6 PUSH2 0x394 JUMP JUMPDEST SWAP4 POP PUSH2 0x456 DUP2 DUP6 PUSH1 0x20 DUP7 ADD PUSH2 0x340 JUMP JUMPDEST PUSH2 0x45F DUP2 PUSH2 0x180 JUMP JUMPDEST DUP5 ADD SWAP2 POP POP SWAP3 SWAP2 POP POP JUMP JUMPDEST PUSH0 PUSH1 0x40 DUP3 ADD SWAP1 POP DUP2 DUP2 SUB PUSH0 DUP4 ADD MSTORE PUSH2 0x482 DUP2 DUP6 PUSH2 0x432 JUMP JUMPDEST SWAP1 POP PUSH2 0x491 PUSH1 0x20 DUP4 ADD DUP5 PUSH2 0x304 JUMP JUMPDEST SWAP4 SWAP3 POP POP POP JUMP INVALID LOG2 PUSH5 0x6970667358 0x22 SLT KECCAK256 0x2E SWAP13 0xE 0xFC CALLVALUE 0xA5 BLOBHASH 0xBA REVERT LOG3 EQ 0xE4 0x4F SWAP15 OR STATICCALL PUSH27 0xC70C4A0550FF82267F5F78F60340ED64736F6C634300081C003300 "},"methodIdentifiers":{"anchorEvidence(string)":"09c0c42e","verifyEvidence(string)":"6f13f95a"}}}}}